:020000040800F2
:20000000001800200D3B00086538000869380008000000000000000000000000000000000A
:20002000000000000000000000000000A93800080000000000000000AB380008AD380008FF
:200040008D3B00088D3B00088D3B00088D3B00088D3B00088D3B00088D3B00088D3B000820
:200060008D3B00088D3B00088D3B00088D3B00088D3B00088D3B00088D3B0008B9380008D7
:200080008D3B000800000000000000008D3B000800000000C9380008D93800088D3B0008CE
:2000A000000000008D3B00088D3B00088D3B00088D3B0008000000008D3B00088D3B000860
:2000C00010B5064C2378002B07D1054B002B02D0044800E000BF0123237010BDA8000020E7
:2000E00000000000FC3B0008084B10B5002B03D00749084800E000BF07480368002B00D1B6
:2001000010BD064B002BFBD09847F9E700000000AC000020FC3B0008A80000200000000039
:20012000002243088B4274D303098B425FD3030A8B4244D3030B8B4228D3030C8B420DD3B0
:20014000FF22090212BA030C8B4202D31212090265D0030B8B4219D300E0090AC30B8B423D
:2001600001D3CB03C01A5241830B8B4201D38B03C01A5241430B8B4201D34B03C01A52419C
:20018000030B8B4201D30B03C01A5241C30A8B4201D3CB02C01A5241830A8B4201D38B02D2
:2001A000C01A5241430A8B4201D34B02C01A5241030A8B4201D30B02C01A5241CDD2C30997
:2001C0008B4201D3CB01C01A524183098B4201D38B01C01A524143098B4201D34B01C01A0C
:2001E000524103098B4201D30B01C01A5241C3088B4201D3CB00C01A524183088B4201D376
:200200008B00C01A524143088B4201D34B00C01A5241411A00D20146524110467047FFE748
:2002200001B5002000F006F802BDC0460029F7D076E770477047C04610B5040001F072F94F
:20024000FA218900FFF76CFF00F084F8002221000120404200F042F8002010BD10B5064A1B
:20026000136810210B4313600020FFF7E5FF03F0B1F9002010BDC04600200240024A13685E
:20028000013313607047C046C4000020014B18687047C046C400002030B583B00190FFF70A
:2002A000F5FF0500019C631C00D00134FFF7EEFF401BA042FAD303B030BD0000024A1368D0
:2002C00002218B431360704710E000E0024A136802210B431360704710E000E070B50028B4
:2002E00011DB8308144DC0339B005C5903221040C000FC3216008640B44389010A40824017
:2003000022435A5170BDC0B20F230340083B9B0806339B00094A944663445D6803221040F1
:20032000C000FF2422008240954389010C4084402C435C60E6E7C04600E100E000ED00E0F8
:200340001F2318401E3B8340014A13607047C04600E100E001380A4B98420FD8094A506059
:200360000948036A1B021B0AC02109060B4303620023936007331360002070470120FCE73C
:20038000FFFFFF0010E000E000ED00E0042805D0054A136804218B4313607047024A136814
:2003A00004210B431360F8E710E000E0704710B5FFF7FCFF10BD000010B504000368064AEA
:2003C0009446634418001421FFF7AAFE80002064024BE36310BDC046F8FFFDBF0000024052
:2003E00070B5041E24D021250223435501680B68104A1A40436880680343E068034320693F
:20040000034360690343A0690343E069034313430B602000FFF7D0FF0023A362E362236310
:200420006363A363012262551F32A354002070BD0120FCE70FC0FFFFF0B5C64600B582B018
:2004400000237BE0DF080837BF003E5807251D40AD000F24AC40A6430C69AC402500354367
:200460003D507BE0856864462540CE68BE403543856045682C004546AC434D682E090125A2
:2004800035409D402C434460C46865462C408D68BD402C43C4604C68E4004ED5414DAE69CF
:2004A00001242643AE61AD692C400194019C9C08A51CAD003C4EAE5903251D40AD000F27E0
:2004C000AF40BE439027FF05B84262D0374FB84261D0374FB8425AD00527AF403D0035431A
:2004E0000234A400304EA551324C2568D44326002E404F68FF0301D515432E002D4D2E60DB
:200500006D682E0026404F68BF0301D515432E00284D6E60AD682E0026404F68FF0201D523
:2005200015432E00234DAE60ED682C404E68B60201D52A4314001F4AD46001330A681400DA
:20054000DC402AD001249C40A0462240F5D04D68022D00D176E7122D00D173E706685F002E
:2005600003252C00BC40E443A44626404C682540BD40354305604D686E1E012E00D871E721
:20058000112D00D16EE7122D00D07DE76AE70227A3E70027A1E701279FE702B004BC9046DB
:2005A000F0BDC046001002400000014000040048000800480004014003690B4201D1002069
:2005C00070470120FCE7002A01D1816270478161FCE703689A69920701D500229A6203689F
:2005E0009A69D20703D49A6901210A439A61704730B504686068064D28408905890D120416
:2006000011430B43039A13430343636030BDC046009800FC70B504000E00150003689B69FA
:20062000DB0616D523689A69920614D4731CF9D0002E04D0FFF72AFE401B8642F2D220223F
:200640004123E25400232232A354023AA354032018E0002016E01022DA6123682025DD61B3
:200660002000FFF7B6FF2268536807490B405360042363643D33E55400234222A354023ACB
:20068000A354012070BDC04600E800FE70B504000D00160023689B699B071CD43200290061
:2006A0002000FFF7B7FF002817D16B1CF2D0002D04D0FFF7EBFD801B8542EBD2636C202206
:2006C000134363644123E25400232232A354023AA354032000E0002070BD0120FCE7F8B5C1
:2006E00005000F0016001C002B689B693A009A4313005A425341B34213D1631CF4D0002C7B
:2007000005D0FFF7C3FD069BC01A8442ECD220224123EA5400232232AB54023AAB54032097
:2007200000E00020F8BD70B582B0040016001D00DAB280239B01009380235B04FFF758FFC9
:20074000079A06992000FFF7A1FF002807D0636C042B02D0032002B070BD0120FBE7012DA1
:200760000ED02368320A9A62079A06992000FFF78DFF002815D0636C042B10D00320EAE717
:200780002368F6B29E62079B0093069B002280212000FFF7A4FF0028DDD00320DBE70120F9
:2007A000D9E72368F6B29E62EDE770B582B0040016001D00DAB280239B0100930023FFF76D
:2007C00017FF079A06992000FFF760FF002807D0636C042B02D0032002B070BD0120FBE77A
:2007E000012D0ED02368320A9A62079A06992000FFF74CFF002815D0636C042B10D003207B
:20080000EAE72368F6B29E62079B0093069B002240212000FFF763FF0028DDD00320DBE749
:200820000120D9E72368F6B29E62EDE770B505000C0016002B689B699B061AD4320021000B
:200840002800FFF7E7FE002815D1002C04D0FFF71DFD801B8442EDD26B6C202213436B6419
:200860004123EA5400232232AB54023AAB54032070BD0020FCE70120FAE7000010B5041EE9
:2008800059D04123C35C002B43D024224123E2542268136801218B4313602268274B616861
:2008A0000B4013612268936825490B409360E368012B34D0226884231B02A1680B43936035
:2008C000E368022B32D0226851681E4B0B4353602268D3681A490B40D3602168236962696B
:2008E0001343A26912021343CB602268E369216A0B4313602268136801210B4313600023D5
:2009000063641F314122A15423630132A354002010BD00224033C25402F07EFEB5E722688C
:2009200080231B02A1680B439360C9E72368802212015A60C7E70120EAE7C046FFFFFFF070
:20094000FF7FFFFF00800002F0B587B007000C00039204930CAB40CB1D884123C35C202B49
:2009600002D0022007B0F0BD002E00D1C5E0002D00D1C4E02033C35C012B01D10220F1E76F
:2009800001224023C254FFF781FC0590009019230122802109023800FFF7A1FE002801D052
:2009A0000320DFE721224123FA541F320133FA5400237B647E627D857B63059B01930E9BE7
:2009C0000093049B039A21003800FFF7ACFE00280CD07B6C042B04D000224023FA5403206B
:2009E000C0E700223C33FA540120BBE77B8D9BB2FF2B0BD9FF233B850023009380235B04B1
:200A0000FF2221003800FFF7F3FD23E07A8D92B23A85D2B20023009380239B042100380094
:200A2000FFF7E6FD16E07B6C042B01D0032099E7012097E77A8D92B23A85D2B2002300937A
:200A400080239B0421003800FFF7D2FD7B8D9BB2002B34D0059A0E993800FFF717FE002801
:200A6000E1D13A687B6A591C79621B7893627B8D013B9BB27B853B8D013B9BB23B85002B98
:200A8000E4D17B8D9BB2002BE0D0059B00930E9B002280213800FFF722FE002831D17B8D52
:200AA0009BB2FF2BC6D9FF233B850023009380235B04FF2221003800FFF79AFDC6E7059A33
:200AC0000E993800FFF7B2FE002806D07B6C042B01D0032046E7012044E73B682022DA61F0
:200AE00039684B68084C23404B604123FA5400232232BB54023ABB5434E7012032E7012047
:200B000030E703202EE7C04600E800FEF0B5D64600B584B007000C00029203930AAB40CBF3
:200B20001D884123C35C202B04D0022004B004BC9246F0BD002E00D1C3E0002D00D1C2E011
:200B40002033C35C012B01D10220EFE701224023C254FFF79BFB82460090192301228021AD
:200B600009023800FFF7BBFD002801D00320DDE722224123FA541E320133FA5400237B64DA
:200B80007E627D857B63534601930C9B0093039B029A21003800FFF708FE00280CD07B6CB4
:200BA000042B04D000224023FA540320BEE700223C33FA540120B9E77B8D9BB2FF2B0CD993
:200BC000FF233B8590239B01009380235B04FF2221003800FFF70CFD1DE07A8D92B23A85CF
:200BE000D2B290239B01009380239B0421003800FFF7FEFC0FE07A8D92B23A85D2B2002364
:200C0000009380239B0421003800FFF7F1FC7B8D9BB2002B37D0534600930C9B0022042122
:200C20003800FFF75CFD00284FD17B6A5A1C7A623A68526A1A703B8D013B9BB23B857A8DAE
:200C4000013A92B27A85002BE1D17B8D9BB2002BDDD0534600930C9B002280213800FFF748
:200C60003EFD002833D17B8D9BB2FF2BC3D9FF233B850023009380235B04FF2221003800DE
:200C8000FFF7B6FCC3E752460C993800FFF7CEFD002806D07B6C042B01D0032046E7012076
:200CA00044E73B682022DA6139684B68094C23404B604123FA5400232232BB54023ABB54AF
:200CC00034E7012032E7012030E703202EE703202CE7C04600E800FEF0B54123C35C202BBA
:200CE00001D00220F0BD2033C35C012B1CD0402401220255412524234355066833689343C8
:200D0000336006683368094F3B403360066833681943316001680B6813430B602023435563
:200D2000002303550020DDE70220DBE7FFEFFFFFF0B54123C35C202B01D00220F0BD20331E
:200D4000C35C012B1AD0402401220255412524234355066833689343336006683368084F69
:200D60003B4009021943316001680B6813430B6020234355002303550020DFE70220DDE741
:200D8000FFF0FFFF70B5041E24D00368124A1A600368124A1A60036842685A600368826885
:200DA0009A60FFF773FA05002368DA68002A06D0FFF76CFA401B2728F6D9032070BD19695D
:200DC000E268914202D01A610020F7E7044A1A600020F3E70120F1E7CCCC000055550000AE
:200DE000AAAA00000368024A1A6000207047C046AAAA0000064A13690420834313610129E9
:200E000003D040BF20BF20BF704730BFFCE7C04600ED00E070B582B004000368DB073BD52E
:200E2000C34B5A680C231340042B2DD0C04B5A680C231340082B1ED06368012B50D0002B82
:200E400055D1BB4B1A68BB490A401A601A68BA490A401A606368002B61D0FFF717FA0500A0
:200E6000B34B1B689B0317D4FFF710FA401B6428F6D903203BE2AE4B5B68C022520213402D
:200E8000802252029342D7D1A94B1B689B0303D56368002B00D127E223689B0767D5A44BCA
:200EA0005B680C221A4251D0A14B5A680C231340082B42D0E368002B7BD09D4A136801210A
:200EC0000B431360FFF7E2F90500994B1B689B0766D4FFF7DBF9401B0228F6D9032006E20F
:200EE000934A116880235B020B431360B2E7052B09D08F4B1A688F490A401A601A688E49E8
:200F00000A401A60A6E78A4B19688022D2020A431A601968802252020A431A609AE7FFF738
:200F2000B5F90500824B1B689B03B5D5FFF7AEF9401B6428F6D90320D9E17D4B5B68C022E9
:200F400052021340802212029342B3D1784B1B689B0704D5E368012B01D00120C7E174494C
:200F60000B68F82293432269D20013430B6023681B0744D5E369002B2ED06D4A536A01211F
:200F80000B435362FFF782F90500694B5B6A9B0735D4FFF77BF9401B0228F6D90320A6E14C
:200FA00063490B68F82293432269D20013430B60DDE75F4A136801218B431360FFF766F964
:200FC00005005B4B1B689B07D1D5FFF75FF9401B0228F6D903208AE1554A536A01218B431F
:200FE0005362FFF753F90500514B5B6A9B0706D5FFF74CF9401B0228F6D9032077E1236882
:201000005B0775D54A4BDB69DB000BD4484AD169802040050143D161D36903400193019BBB
:20102000012500E00025454B1B68DB051FD5A368012B30D0002B34D13D4B1A6A01218A433C
:201040001A621A6A03318A431A62A368002B3ED0FFF71CF90600364B1B6A9B0746D4FFF706
:2010600015F9801B364B9842F5D903203FE1334A116880235B000B431360FFF707F90600AA
:201080002E4B1B68DB05D2D4FFF700F9801B6428F6D903202BE1264A136A01210B431362E8
:2010A000D3E7052B09D0224B1A6A01218A431A621A6A03318A431A62C7E71D4B1A6A042151
:2010C0000A431A621A6A03390A431A62BDE7FFF7DDF80600164B1B6A9B0707D5FFF7D6F821
:2010E000801B174B9842F5D9032000E1012D29D02368DB0658D56369012B29D0053347D047
:201100000B4B5A6B04210A435A635A6B03398A435A63FFF7BBF80500054B5B6B9B0743D57C
:20112000FFF7B4F8401B0228F6D90320DFE0C04600100240FFFFFEFFFFFFFBFF00700040DC
:20114000881300006C4AD3696C490B40D361CFE7694B5A6B04210A435A635A6B03390A4322
:201160005A63FFF793F80500634B5B6B9B0706D4FFF78CF8401B0228F6D90320B7E05E490D
:201180004B6BF8229343A269D20013434B630BE0594A536B04218B435363536BF4318B4322
:2011A000A169C9000B43536323689B0645D5524B5A680C2313400C2B23D04F4B5A680C237C
:2011C0001340082B16D0236A002B23D04A4A516B80235B020B435363FFF758F80500464BC8
:2011E0005B6BDB0329D4FFF751F8401B0228F6D903207CE0404B5B68C02252021340934290
:20120000E1D13D4B5B6BDB0317D5236A012B14D001206CE0384A536B39490B405363FFF741
:2012200035F80500344B5B6BDB0306D5FFF72EF8401B0228F6D9032059E0636A002B55D095
:201240002D4A51680C220A40082A52D0022B12D0294A13682B490B401360FFF717F804005A
:20126000254B1B689B013DD5FFF710F8001B0228F6D903203BE0204A136822490B4013606F
:20128000FFF704F805001C4B1B689B0106D5FEF7FDFF401B0228F6D9032028E0164BDA6AE1
:2012A0000F218A43216B0A43DA625A6816490A40E16AA06A01430A435A6019688022520498
:2012C0000A431A60FEF7E2FF04000B4B1B689B0106D4FEF7DBFF001B0228F6D9032006E032
:2012E000002004E0002002E0012000E0002002B070BD0120FBE7C04600100240FFFFFFEFA1
:20130000FFFFFEFFFFFFFFFEFF7FC2FF30B589B004AA1F4B180032C832C2110002680A6077
:201320006A46103313CB13C21B681360194B5A680C231340082B04D00C2B26D0164809B01E
:2013400030BD910C0F23194004A8445C1149C96A0B406946C95CC0235B021A4080235B02E6
:201360009A4208D0C0235B029A4209D00A48FEF7D7FE6043E3E70848FEF7D2FE6043DEE7BE
:201380000648FEF7CDFE6043D9E70448D7E7C046143C00080010024000127A00006CDC024C
:2013A00070B505000C00594B1A68012313408B420BD256490B680122934323430B600B6861
:2013C0001A40944201D001209DE02B689B0706D54F4A5368F0218B43A9680B4353602B6886
:2013E000DB0764D56B68012B25D0022B29D0032B2DD0474A1268920700D485E044494A6871
:201400000320824313434B60FEF740FF06006B68012B22D0022B2ED0032B3AD03C4B5B680B
:201420000C221A4243D0FEF731FF801B394B9842F4D9032067E0364A12689203DED4012058
:2014400061E0334A12689201D8D401205BE0304A526BD203D2D4012055E02D4B5A680C2348
:201460001340042B23D0FEF711FF801B294B9842F3D9032047E0264B5A680C231340082B0B
:2014800015D0FEF703FF801B224B9842F3D9032039E01F4B5A680C2313400C2B07D0FEF7D5
:2014A000F5FE801B1B4B9842F3D903202BE0174B1A68012313409C420BD214490B6801225B
:2014C000934323430B600B681A40944201D0012019E02B685B0706D50D4A53680E490B4053
:2014E000E9680B435360FFF711FF094B5A6812090F231340094AD35CD840094B1860002058
:20150000FEF79AFE002070BD0120FCE7002002400010024088130000FFF8FFFFC03C0008A5
:20152000A4000020014B18687047C046A400002070B582B004000368DB0335D5464BDB6917
:20154000DB005CD4444AD169802040050143D161D36903400193019B0125404B1B68DB059A
:201560004FD53D4B1B6AC0229200134013D061680A4093420FD0384B186A394A02401E6A77
:201580008021490231431962196A364E314019621A62C30749D4304A136A31490B40616895
:2015A0000B431362012D4FD02368DB0706D52A4A136B03218B43A1680B43136323689B06F6
:2015C00006D5254A136B10218B43E1680B43136323689B0306D5204A136B80218B43616912
:2015E0000B43136323685B0533D51B4A136B40218B4321690B431363002002B070BD0025B0
:20160000ABE7164A116880235B000B431360FEF73DFE0600114B1B68DB05A2D4FEF736FE0C
:20162000801B6428F6D90320E7E7FEF72FFE0600094B1B6A9B07AED4FEF728FE801B0A4B93
:201640009842F5D90320D8E7D36908490B40D361AAE70020D1E7C046001002400070004083
:20166000FFFCFFFFFFFFFEFF88130000FFFFFFEFF8B506000C0017001D003EE0002D05D0DC
:20168000FEF704FE069BC01A854236D832685368E0218B43536082235B0072689A420CD09A
:2016A00080239B01B26A9A4216D001225D23F2540022013BF254032027E0B3688022120285
:2016C000934203D08022D2009342E9D13268136840218B431360E3E7326813680B490B402A
:2016E00013603268116880239B010B431360DCE70123BB4208D06B1CC0D133689B6823408F
:201700009C42F5D00023F4E70020F8BDFFDFFFFFF0B583B007000C0015001E0001E0731CE9
:2017200010D13A6893682340AB4245D0C023DB009C42F4D1002DF2D1137BDBB26A46D37166
:20174000D379ECE7002E05D0FEF7A0FD089BC01A8642E6D83A685368E0218B43536082234E
:201760005B007A689A420CD080239B01BA6A9A4216D001225D23FA540022013BFA5403208F
:201780001BE0BB6880221202934203D08022D2009342E9D13A68136840218B431360E3E741
:2017A0003A68136806490B4013603A68116880239B010B431360DCE7002003B0F0BDC0469B
:2017C000FFDFFFFF70B582B004000D00160000920B000022C0214901FFF79AFF002806D038
:2017E000236E202213432366032002B070BD00962B00002280212000FFF73AFF002805D065
:20180000236E2022134323660320EEE700962B000022C021C9002000FFF77AFF0028E4D026
:20182000236E2022134323660320DEE770B5041E5ED0002383625D33C35C002B4CD0022277
:201840005D23E2542268136840218B431360E368E022D200934245D90021F02212019342FE
:2018600005D0E022D200934201D00022A262226B002A05D1E022D200934236D90223236303
:2018800022686368A0680343206903436069034380208000A56928400343E0690343206AD2
:2018A0000343A06A034313602268608B04230340606A0343606B0343E06803430B43536090
:2018C0002268D3690B490B40D3610023236601225D33E254002070BD00225C33C25401F0D5
:2018E000C1FEACE780214901B7E701232363C7E70120F0E7FFF7FFFFF0B585B004000D00DE
:2019000016001F005C23C35C012B02D1022005B0F0BD01225C23C254FEF7B8FC01905D23FF
:20192000E35C012B07D0022001225D23E2540022013BE254EBE7002D00D1B0E0002E00D177
:20194000AFE003225C33E25400232366A563A687E68723644132A3520232A3522365E364D9
:2019600080231B02A2689A421CD023681A68520603D41A6840210A431A60E023DB00E268C7
:201980009A4231D96368002B03D0E38F9BB2012B1AD123682A88DA600235E38F013B9BB219
:2019A000E38711E0226811688023DB010B431360DBE7002F00D176E07B1C05D0FEF766FCAE
:2019C000019BC01A874270D9E38F9BB2002B4ED023689A689207ECD52A88DA600235E38FFB
:2019E000013B9BB2E387EFE76368002B03D0E38F9BB2012B27D1E38F9BB2012B08D923681B
:201A00002A88DA600235E38F023B9BB2E3871AE02B7822681373E38F013B9BB2E3870135F5
:201A200011E02A781A73E38F013B9BB2E387013509E0002F3BD07B1C05D0FEF727FC019BA8
:201A4000C01A874235D9E38F9BB2002B0FD023689A689207EDD5E28F92B2012AE1D92A88D8
:201A6000DA600235E38F023B9BB2E387EBE7019A39002000FFF7A6FE002801D0202323666A
:201A8000A368002B06D103932368DA6803929B680393039B236E002B0DD1002044E7012004
:201AA00042E7012040E703203EE703203CE703203AE7032038E7012036E7000030B5036A11
:201AC000012293430362036A446882697325AA430D682A430225AB438D682B43124DA8427C
:201AE00014D0124DA84211D0114DA8420ED00E4DA84212D00D4DA8420FD00D4DA8420CD048
:201B0000446082614A684263036230BD0825AB43CD682B430425AB43E9E7064D2C404D697B
:201B20002C438D692C43EBE7002C01400044014000480140FFFCFFFF30B5036A194A134083
:201B40000362036A4568C4697532FF3294430A681443154A13408A6812021343134A904224
:201B60000ED0124A904213D0114A904210D0114A90420DD04560C4614A68C263036230BD6C
:201B80000D4A1340CA68120213430C4A1340E8E70B4A15404A69120115438A691201154361
:201BA000E8E7C046FFFEFFFFFFFDFFFF002C01400044014000480140FFF7FFFFFFFBFFFFF4
:201BC000FFCFFFFF30B5036A124A13400362036A4568C269104C22400C68240222430F4C76
:201BE00023408C68240323430D4CA0420BD00D4CA04208D00C4CA04205D04560C2614A684F
:201C00000264036230BD094C2C404D69AD012543F3E7C046FFEFFFFFFF8CFFFFFFDFFFFF4E
:201C2000002C01400044014000480140FFBFFFFF30B5036A046A0125AC4304628469EF3521
:201C4000AC43120122430A24A34319438261016230BD000030B5036A1024A34303628469BC
:201C6000036A054D2C4012032243A024A343090119438261016230BDFF0FFFFF83687022F3
:201C800093430722114389B21943816070470368DA6801210A43DA60026813680B431360C6
:201CA000002070477047704770477047704710B5040003681A6992070FD5DA6892070CD5CA
:201CC000032252421A610123037703689B699B0763D0FFF7E9FF0023237723681A695207EC
:201CE00012D5DA6852070FD5052252421A610223237723689A69C0239B001A4253D02000DE
:201D0000FFF7D2FF0023237723681A69120710D5DA6812070DD5092252421A6104232377FB
:201D20002368DB699B0745D02000FFF7BDFF0023237723681A69D20612D5DA68D2060FD5C3
:201D4000112252421A61082323772368DA69C0239B001A4235D02000FFF7A6FF0023237757
:201D600023681A69D20702D5DA68D20730D423681A69120602D5DA68120630D423681A691D
:201D8000520602D5DA68520630D423681A69920602D5DA68920630D410BDFFF784FF2000B5
:201DA000FFF783FF97E72000FFF77DFF2000FFF77CFFA7E72000FFF776FF2000FFF775FF67
:201DC000B5E72000FFF76FFF2000FFF76EFFC5E7022252421A61200001F086FDC7E781229C
:201DE00052421A61200000F07AFAC7E7412252421A612000FFF75AFFC7E7212252421A61C1
:201E0000200000F06BFAC7E703681F4A904232D08022D20590422ED01C4A90422BD01A4A17
:201E200090420FD08022D20590420BD0174A904208D0174A904205D0164A904202D0164A54
:201E4000904203D1154A1340CA681343802293434A69134303608B68C3620B6883620A4BF9
:201E600098420DD00B4B98420AD00B4B984207D0012343617047702293434A681343CEE7F6
:201E80000B690363F4E7C046002C014000040040002000400044014000480140FFFCFFFF6F
:201EA00070B5041E14D03D23C35C002B0AD03D2502236355211D2068FFF7A6FF01236355F7
:201EC000002070BD00223C33C25401F00FFCEEE70120F6E770B5041E14D03D23C35C002B6A
:201EE0000AD03D2502236355211D2068FFF78CFF01236355002070BD00223C33C254FFF7BC
:201F0000D1FEEEE70120F6E730B5036A102293430362036A45688469164A14400A6812021F
:201F20001443202293438A6812011343124A90420ED0114A904213D0104A904210D0104A55
:201F400090420DD0456084614A688263036230BD80229343CA681201134340229343E8E745
:201F6000084A15404A69920015438A6992001543E8E7C046FF8CFFFF002C014000440140F0
:201F800000480140FFF3FFFF70B504000D003C23C35C012B69D001213C23C15401310133B3
:201FA000C154042A37D019D9082A4AD00C2A2AD129000068FFF706FE2268D16980231B015A
:201FC0000B43D3612268D36929490B40D3612168CB692A6912021343CB6114E0002A12D1E1
:201FE00029000068FFF76AFD2268936908210B4393612268936904398B43936122689369F7
:020000040800F2
:2020000029690B43936101223D23E2540022013BE254002070BD29000068FFF775FF2268CD
:20202000916980231B010B4393612268936910490B40936121688B692A69120213438B6121
:20204000E1E729000068FFF777FD2268D36908210B43D3612268D36904398B43D3612268BD
:20206000D36929690B43D361CDE70220D2E7C046FFFBFFFF30B58468034D2C401B021A437C
:2020800011432143816030BDFF00FFFF10B504003C23C35C012B00D17FE001223C23C25482
:2020A00001320133C254026893683D48034093600B68402B5DD010D9702B43D020D8502B6E
:2020C0004DD0602B36D1CA6849682068FFF7C2FD60212068FFF7D2FD2CE0102B53D008D918
:2020E000202B55D0302B25D130212068FFF7C6FD20E0002B1ED100212068FFF7BFFD19E01F
:2021000080225201934210D080229201934211D1CB684A6889682068FFF7ACFF22689168A7
:202120008023DB010B43936004E02268936807218B43936001223D23E2540022013BE25440
:20214000002010BDCB684A6889682068FFF792FF2268936877218B430B439360EAE7CA687E
:2021600049682068FFF764FD50212068FFF786FDE0E7CA6849682068FFF75AFD40212068F5
:20218000FFF77CFDD6E710212068FFF777FDD1E720212068FFF772FDCCE70220D1E7C04677
:2021A0008800FFFF10B501248C40036AA3430362036A8A401A43026210BD000010B504009D
:2021C00001220068FFF7EEFF23680F4A934216D00E4A934215D00E4A93420ED00022002A89
:2021E00004D0596C802212020A435A642268136801210B431360002010BD0122EFE7012294
:20220000EDE70122EBE7C046002C01400044014000480140F0B53C23C35C012B1ED03C22D9
:20222000012585543D2402230355066873687027BB437360066873680F683B437360066891
:20224000B3688027BB43B3600668B36849680B43B3600555002383540020F0BD0220FCE7EA
:2022600070B53C23C35C012B28D03C22012585543D2402230355124BCE6833408E683343EA
:20228000104E33404E6833430F4E33400E6833430E4E33400E6933430D4E33404E693343CE
:2022A0000C4E334089690B430B4E33400B4301684B64055500238354002070BD0220FCE739
:2022C000FFFCFFFFFFFBFFFFFFF7FFFFFFEFFFFFFFDFFFFFFFBFFFFFFF7FFFFF70477047AB
:2022E000074A0023136053609360D360054A1370054A1370054A13700122054B1A707047F4
:20230000F0000020CA000020CB000020D2000020D30000207047000010B503781B0709D5FC
:20232000094B1B78002B06D00020FFF7D9FF0022054B1A7010BD054C00220549206800F0C5
:20234000CBFB2060F6E7C046D30000201C0200203800002010B53D4B1B780B2B22D9002298
:202360003A4B1A703A4B1B78002B24D1394B1A70394B1A78394B1B789B00D3183849CB5CAD
:20238000202B08D09000E024FF343649445036498B54002B07D0304B1B78032B4DD0013353
:2023A0002D4A137010BD314C00223149206800F093FB2060EFE70F22264B1A70274B1A78B1
:2023C0009200254B1B789A18254B9B1850229B5C202B16D0002B03D11F4A13701F4A137022
:2023E0001D4B1A789100E020FF301E4BC8501B4B1B789B00D3181A49CB185021595C1A4B52
:2024000099541C4B00221A805A809A80134B1B78022B08D0042B0BD0002BBCD1D732FF32C6
:20242000144B1A80B7E7EB225200124B5A80B2E7EB2252000F4B9A80ADE7084A137801335E
:2024400013700022044B1A70ACE7C046D4000020D30000201A020020D2000020CB00002065
:20246000343C0008F0000020140300201C02002038000020CC000020F8B51D4B1B780F2B39
:2024800033D801331A4A137025E0A700194EB81900F0B8FB184B1B5D01259D40B959174B3D
:2024A0001A78D3009B1A1B195B00154A985A4843E021FF31FDF734FE0200E9B2114800F05A
:2024C00063FB0134032CE0DD0F4A1378013313700022074B1A700D4B1A88598809041143A8
:2024E0009A880B4800F0C0FBF8BD0024EAE7C046CA000020F0000020A000002058030020D7
:202500009C010020D4020020D4000020CC000020240200200122044B1A70044A13780121EB
:202520000B4313707047C046DA0000201B020020024A137801218B43137070471B02002098
:20254000C046704710B5354B1B78002B2AD1344B1B78002B49D1334B1B78002B23D1002217
:202560002EE0314B1978CB005B1A9B185B0077202E4958520132032AF3DD2B4B18782B4990
:20258000C3001C1A62008A18002414810E3454811B1A5A0089181D238B81224A1378594260
:2025A0004B41137010BD0022E5E71F4B1978CB005B1A9B185B00E020FF301C495852013297
:2025C000032AF2DD184B18781849C3001C1A62008A18EB2464001481623CFF3C54811B1AC3
:2025E0005A00891800238B81D7E7012BDAD1104B1B78032B03D001330D4A1370D2E70D4910
:2026000000240C70FF220C4800F0B1FB044B1C700A4A137801210B431370C3E7DE000020B4
:20262000D8000020EE000020580300209C010020D900002064020020000100201B0200207F
:2026400010B50F4B1B78002B05D10E4B1B78002B02D0012B0BD010BD01210A4B19700A4AB6
:2026600013788B4313700022084B1A70F3E7FF220749084800F023FB0022044B1A70EAE70A
:20268000DE000020D80000201B020020D90000206402002000010020084B1B78002B0AD17B
:2026A0000122074B1A70074B1B78012B04D00133DBB2044A137070470023FAE7D8000020F1
:2026C000D6000020DE000020084B1B78002B0AD10122074B1A70074B1B78002B04D0013BFB
:2026E000DBB2044A137070470123FAE7D8000020D6000020DE000020F8B507000678234B34
:202700001B78002B2BD00022204B1A7000241CE0A200E021FF311E4BD1501E4B1B5D012565
:202720009D401D4B1A78D3009B1A1B195B001B4A9B5A1801C01A4001C01AFDF7F1FC020060
:20274000E9B2174800F020FA0134032CE0DD0022144B1A80144A137808218B43137073075C
:2027600009D5330704D5FFF76BFF00233B70F8BDFFF7E8FEF9E7B307F7D5F30702D4FFF77D
:20278000A3FFF2E7FFF788FFEFE7C046D6000020F0000020A0000020580300209C01002067
:2027A000D4020020DC0000201A02002070B51B4D29791B4C0022200000F04EFB6978A01C3D
:2027C000002200F049FB174B1B78002B0FD1134B1B78DB0705D5144A137801210B4313701A
:2027E0000DE0114A137801218B43137007E00F4B1B780322D21A012393400B4A1370084B8C
:202800001A7830321A705A7830325A709A7830329A70DA783032DA7070BDC0466402002007
:2028200014030020D80000201A020020D900002070B52E4B1B78002B26D12D4B1B78002BAB
:2028400007D02C4B5B79072B49D89B002A4AD3589F46284D297A294C0022200000F0FCFA2F
:20286000A979A01C002200F0F7FA237830332370637830336370A3783033A370E378303386
:20288000E37000221E4B1A7070BD04221D491B4801F0A2F9F5E704221B49184801F09CF9DC
:2028A000EFE704221949154801F096F9E9E704221749124801F090F9E3E7042215490F480E
:2028C00001F08AF9DDE7042213490C4801F084F9D7E704221149094801F07EF9D1E70422A7
:2028E0000F49064801F078F9CBE7C046D8000020D700002064020020A03C00081403002088
:202900001A020020D83C0008E03C0008E83C0008F03C0008F83C0008003D0008083D00080D
:20292000103D000870B55F4B1B78002B2CD15E4B1B78012B2AD0022B63D05C4B1B78002B91
:2029400061D0012B67D00022584B1A705DE0A000574BC018012100F071F90134032CF6DD8A
:20296000534B1B68002B54D1514BDB68002B50D100224C4B1A7003324B4B1A700D320021C3
:202980004B4801F032F944E00024E7E7494B1C88002C05D0C72C17D80134464B1C8038E0DD
:2029A000424B1D786B005B19434E4449C9180322300001F011F93135013E3570404A137868
:2029C00008210B431370E5E700223A4B1A800232354B1A701DE0A000354BC018022100F0AA
:2029E0002DF90134032CF6DD314B1B68002B10D103222D4B1A70324A137808218B431370C7
:202A000007E00024EEE7FFF7D1FE274B1B78032B17D0002431E0FFF70BFFF6E7A000244BD6
:202A2000C018012100F013F90134032CF6DD204B1A68E023FF339A42EBD100221A4B1A709E
:202A4000E7E70024F1E71F4B1B5D01259D40A200174BD1581C4B1A78D3009B1A1B195B008A
:202A60001A4A985A4843E021FF31FDF759FB0200E9B2174800F088F80134032CE3DD124B0F
:202A80001B78DA00D21A5100104B5B181A001B89518908320904194392880E4800F0E4F847
:202AA00070BDC046DA000020D6000020DE000020F0000020DC000020150300202800002069
:202AC0001A020020A0000020580300209C010020D40200202402002070B50C001D0043688D
:202AE0009B68002B01D01000984763685B68002B01D028009847200070BD70B50400037866
:202B00000F208343A02B0BD163684D015819002808D08900CB58100098476068401970BDA6
:202B20000020FCE70020FAE770B582B0002400E001348C4210DA0B1B013B055D203D104ECA
:202B4000755D6E46F55416001E41F607F0D5402635436E46F554EBE78AB2FF236946094864
:202B6000FEF7CAFE9024E405012240212000FDF72AFD002240212000FDF725FD02B070BDA4
:202B8000600000207002002030B5CB070AD503681C6A0125AC431C6203685A630468236AE8
:202BA0002B4323628B070AD503681C6A1025AC431C6203689A630468236A2B4323624B0778
:202BC0000CD50468236A0D4D2B4023620368DA630468256A80235B002B4323620B070CD54A
:202BE00001680B6A064C23400B6203681A640268116A80235B010B43136230BDFFFEFFFF5D
:202C0000FFEFFFFF0368DC22520093420AD8F02B0BD8782B0CD8282B0DD8002B04D0013B5E
:202C2000036001E0023B03607047083B0360FBE7063B0360F8E7023B0360F5E703688B423A
:202C400002D20023036070475B1A0360FBE70268E023FF335B1A9A4203D9E023FF33036045
:202C6000704789180160FBE782B0009101920268136A0B490B40136203686A4612885A63F6
:202C800003686A4652889A6303686A469288DA630268116A1223FF330B43136202B0704758
:202CA000EEFEFFFF00B585B00292022301930091013B0E22D021FDF747FE05B000BD70B535
:202CC00086B004000D0016000292022301930091013B0022D021FDF719FF002801D006B0AF
:202CE00070BD02960123019316336B44009301230222D0212000FDF709FF0028EFD1172355
:202D00006B441B785A062BD50122AA7059090A40EA701F2213402B716B1D029602220192C7
:202D2000009301230132D0212000FDF7EFFE0028D5D102960123019315336B4400930123EB
:202D40000522D0212000FDF7E1FE0028C7D116236B441A78D309EB711F2313402B72BEE71F
:202D60000022AA70EA703F3213402B71D4E770B586B004000D001600029202230193009142
:202D8000013B0022D021FDF7DFFD002824D1AB78002B23D0402217236B441A70EB78002B53
:202DA00003D0203217236B441A700422AA561F23134017226A4411780B43137002960123C3
:202DC000019316336B44009301230222D0212000FDF7BAFD002809D006B070BD0422AA56C6
:202DE0003F23134017226A441370E7E76B1D029602220192009301230132D0212000FDF720
:202E0000A3FD0028E8D1EB79002B06D016226A44117880235B420B4313700822AA561F23E0
:202E2000134016226A4411780B43137002960123019300920522D0212000FDF785FD002847
:202E4000CAD1093502960123019300950622D0212000FDF779FDBFE70F230B4043700F2309
:202E600013410909194001707047000070B588B02D4B59698020C003014359615A6902406E
:202E80000092009A596980208002014359615A6902400192019A5A698021C9020A435A61BA
:202EA0005B690B400293029B9026F605012210213000FDF788FB002240213000FDF783FB00
:202EC000102303930125049505950024069403A93000FDF7B1FA40230393049505943D3BF4
:202EE000069303A93000FDF7A7FA0395022604960594069407950D4D03A92800FDF79CFAE7
:202F0000D02303930494059603A92800FDF794FA80235B0003930494059403A92800FDF712
:202F20008BFA08B070BDC046001002400004004800B583B0094A51690123194351615269A1
:202F400013400193019B002200210A20FDF7C6F90A20FDF7F5F903B000BDC04600100240FA
:202F600010B5802189038023114AD150EF22FF211048FFF709FE104C04221049200000F0CF
:202F80002BFE0F2204212000FFF7CEFDC820FDF783F904220A49200000F01EFE0F2204217E
:202FA0002000FFF7C1FDC820FDF776F9E3E7C04600E100E0D402002014030020103D0008DF
:202FC000183D000800B58FB03B488023DB050360002343608360E022FF32C26003618361F1
:202FE000FEF75EFF00283FD180235B010A930AA93148FFF74BF800283BD12F48FEF76AFF3D
:2030000000283BD100230893099308A92A48FFF701F9002837D1602301938F330293ED3B49
:20302000039302330593002201A92348FEF7ACFF00282DD1042201A91F48FEF7A5FF002838
:203040002BD1082201A91C48FEF79EFF002829D10C2201A91848FEF797FF002827D1164847
:2030600000F0B2FB0FB000BDD42149001348FFF777FFD72149001148FFF772FFB421FF312C
:203080000E48FFF76DFFDD2149000C48FFF768FFC421FF310948FFF763FFE4214900074825
:2030A000FFF75EFFCE21FF310448FFF759FFE92149000248FFF754FFD4020020203D0008C3
:2030C00000B595B04148424B0360002343608360E022FF32C260036143618361FEF7E0FEC0
:2030E00000284AD180235B01109310A93748FEF7CDFF002846D13548FEF7ECFE002846D118
:2031000000230E930F930EA93048FFF783F8002842D1602307930023089309930A93042234
:203120000B920C930D93002207A92848FEF72CFF002836D1042207A92448FEF725FF00289F
:2031400034D1082207A92148FEF71EFF002832D100230093019302930393049380229201A9
:203160000592069369461948FFF77AF8002827D1164800F029FB15B000BD5E21FF31154887
:20318000FFF7EEFE6421FF311248FFF7E9FEB42149001048FFF7E4FE7021FF310D48FFF707
:2031A000DFFE7C21FF310B48FFF7DAFEC02149000848FFF7D5FE8621FF310648FFF7D0FE18
:2031C0009221FF310348FFF7CBFEC04624020020002C0140203D000810B51748174B0360FB
:2031E000174B4360002383600122C260036143618361C3610362FDF741FB00280CD10021B4
:203200000D48FDF769FD00280BD100210A48FDF78FFD00280AD110BD1021FF310948FFF790
:203220009FFE8B2149000748FFF79AFE1E21FF310448FFF795FEC046000100200054004020
:203240000B020000203D000800B589B01B481C4B036009234360002383602F22C260036135
:203260008361FEF71DFE002818D11448FEF732FE002818D160230193483B029300230393CF
:2032800004330593002201A90C48FEF77DFE00280ED10A4800F098FA09B000BDE821FF3145
:2032A0000848FFF75DFEF62149000648FFF758FEF621FF310348FFF753FEC0461803002059
:2032C00000200040203D000810B50B480B4B03600B4B4360002383601822C26003614361F5
:2032E00080338361FEF7DCFD002800D110BD05490548FFF735FEC0466403002000440140CD
:20330000E703000009020000203D000810B50948094B0360002343608360C36003614361B2
:203320008361FEF7BDFD002800D110BD03490448FFF716FE5C010020004801401B0200006F
:20334000203D000810B51348134B036082235B00436000238360E022D200C2600361436180
:20336000802292008261F13AFF3AC2617032026243628362793AC262036308334363FEF70C
:2033800055FA002800D110BDA32149000348FFF7E7FDC0467002002000300140203D000878
:2033A00010B50948094B036000234360084BC3608360FDF7E7FC002800D110BD9621490084
:2033C0000448FFF7CDFDC0464C01002000300040FF0F0000203D000800B599B02A230B93A2
:2033E000293B0E93139310220F921293002314930BA8FDF70FFD002829D107230793043B08
:2034000008938D33099300230A93002107A8FDF7C7FF00281FD1202301930023049301A819
:20342000FEF786F800281AD1FEF77CF8FA218900FCF776FEFCF78EFF0420FCF7A7FF002233
:20344000002101204042FCF749FF19B000BDDD210548FFF785FDEA210348FFF781FDF12148
:203460000148FFF77DFDC046203D000810B582B0FCF7F4FEFFF7B0FFFFF7F8FCFFF758FD72
:20348000FFF7A0FDFFF71CFEFFF7A6FEFFF7DCFEFFF71AFFFFF73AFFFFF754FFFFF780FF23
:2034A0009024E405002240212000FDF78CF8012210212000FDF787F8002210212000FDF706
:2034C00082F8012210212000FDF77DF8354CFF2221003548FFF7F3FB637A5A425341DBB2D7
:2034E000324A1370002B08D000236A4613705370FF2269462C48FFF7D5FB00222C4B1A7084
:203500000023032B47DD2B4BEB2252001A81623AFF3A5A8100229A81274C00212000FEF730
:203520004DFE04212000FEF749FE08212000FEF745FE224C00212000FEF740FE0421200017
:20354000FEF73CFE08212000FEF738FE0C212000FEF734FE1A481B4B186000220121FFF7DA
:20356000CCFA1948FEF793FB164B186800220721FFF7C3FA1548FDF735FC154B1B78DB066D
:20358000F2D5FCF79BFE01210020FDF733FCC046FCF79CFEE8E75900E020FF30054A885260
:2035A0000133AEE764020020000100200C020020580300209C01002024020020D4020020F9
:2035C000000000201C020020640300204C0100201B02002000B583B00E4A916901231943A2
:2035E0009161926913400193019B0022002105204042FCF773FE0022002102204042FCF733
:203600006DFE0022002101204042FCF767FE03B000BDC0460010024000B587B002680E4B8A
:203620009A4201D007B000BD0323019312220292002203920493023B059301A90748FCF7D8
:20364000FBFE074AD169802080030143D161D36903400093009BE5E70054004000140048E4
:203660000010024070B586B004001B4B02689A4201D006B070BD194B9A6980267601324340
:203680009A619B6933400093009BA02301939E3B02930025039501330493059501A9902049
:2036A000C005FCF7C9FE0E480E4B03601023436085607033C360056145618561C661FCF7EC
:2036C0008FFE002803D1064B63655C62D1E7A1210548FFF745FCF6E70030014000100240EC
:2036E000A403002030000240303D000800B587B00368304A93420ED08022D205934215D065
:203700002D4A934224D02D4A93422CD02C4A93423CD007B000BD2B4A916980200001014302
:203720009161936903400193019BF2E7254AD16901231943D161D26913400293029B002212
:2037400000210F20FCF7CAFD0F20FCF7F9FDE0E71C4AD169802040000143D161D36903400B
:203760000393039BD5E7174A91698020800201439161936903400493049B002200211520B9
:20378000FCF7ACFD1520FCF7DBFDC2E70D4A91698020C00201439161936903400593059B84
:2037A000002200211620FCF799FD1620FCF7C8FDAFE7C046002C014000200040004401402B
:2037C000004801400010024070B586B00368214A934208D08022D205934214D01E4A9342C1
:2037E0002AD006B070BDE023DB000193022302930022039203320492059301A99020C00587
:20380000FCF71AFEEDE7154B0193022402940026039603250495059401A99020C005FCF7EE
:203820000BFE08230193029403960495059401A90B48FCF701FED4E7022301930293002344
:20384000039301220492059301A90548FCF7F4FDC7E7C046002C0140002000400C80000099
:20386000000400487047000010B5802189038023094AD150094C04220949200000F0ACF9BA
:203880000F2204212000FFF74FF9EF22FF210548FFF77AF9FEE7C04600E100E014030020AA
:2038A0004C3D0008D40200207047704710B5FCF7E5FCFCF77CFD10BD10B50248FEF7F7F94D
:2038C00010BDC046D402002010B50248FEF7EFF910BDC0466403002010B50248FEF7E7F9F5
:2038E00010BDC0465C01002070B5604B984200D070BD5F4D40212800FCF75EFE03005842B0
:2039000058415C4C207080212800FCF755FE030058425841607010212800FCF74DFE030027
:2039200058425841C0B2A0702378002B23D0514A5278002A03D0504A0021117051704D4A23
:203940005278002A27D0002B03D04B4B00221A705A70002834D0484B9B78002B37D101224A
:20396000454B9A70454B1A88454B9A4224D80122444B1A702BE0404A1278002ADFD13E4A56
:20398000012111705278002AD9D001223E490A703E490A70D3E7384B5B78002BD9D1364B5C
:2039A00001225A701B78002BD3D00022364B1A700132364B1A70CCE70022304B1A6006E09E
:2039C00000222D4B9A702D4A1368013313602F4B1978002903D12B4B1B78002B1ED0294B0C
:2039E0001A7892002848037813435BB249000B43DBB20370214A1288C72A02D9082213436D
:203A000003700023214A13701E4A13701B4A13601F4B18681C4A0321FFF76FF81C4B1868A7
:203A200000220421FFF769F81A4B1B78DB0717D4184B1B789B0704D5174B1B78DB0700D407
:203A400056E7154B1B78DA0703D501229343124A1370124B1A7804211148FFF765F847E7B7
:203A6000FF2210491048FFF72AF9E1E76403002000040048F4030020EC030020E80300208F
:203A800057020000F0030020F8030020F70300201C0200201B020020E00000201A020020CE
:203AA000140300206402002000010020114B1A6801210A431A605A680F4802405A601A68CA
:203AC0000E4802401A601A680D4802401A605A680C4802405A60DA6A0F208243DA621A6B36
:203AE000094802401A635A6B8A435A6300229A607047C046001002400CB8FF08FFFFF6FE7F
:203B0000FFFFFBFFFFFFC0FF2CFEFFFF1348854613480168090E134A914205D1124813490B
:203B2000016013481349016013481449144A002302E0D458C4500433C4188C42F9D3114AA9
:203B4000114C002301E013600432A242FBD3FFF7ADFF00F01DF8FFF789FCFEE7001800206A
:203B6000040000001F0000001810024001000000000001400000000000000020A80000208E
:203B80005C3D0008A8000020FC030020FEE7000070B500260C4D0D4C641BA410A64209D1C6
:203BA000002600F02BF80A4D0A4C641BA410A64205D170BDB300EB5898470136EEE7B3006D
:203BC000EB5898470136F2E7543D0008543D0008543D0008583D0008002310B59A4200D1B6
:203BE00010BDCC5CC4540133F8E703008218934200D1704719700133F9E70000F8B5C0465B
:203C0000F8BC08BC9E467047F8B5C046F8BC08BC9E46704702030405060708090A0B0C0D71
:203C20000E0F10100102030405060708090A0B0C0D0E0F10202020204849202120202020ED
:203C400054484953495320415350454349414C204749465420202020464F52204D59202077
:203C600044454152202020204841505059202042495254484441592120202020202020206E
:203C80000000000038383838202020203132333420202020414243442020202000000000F0
:203CA000DE2800088A28000896280008A2280008AE280008BA280008C6280008D2280008E4
:203CC0000000000000000000010203040607080900000000010203042053554E000000009C
:203CE000204D4F4E000000002054554500000000205745440000000020544855000000009B
:203D0000204652490000000020534154000000002145525200000000202020200000000010
:203D20002E2E2F5372632F6D61696E2E630000002E2E2F5372632F73746D3332663078784A
:203D40005F68616C5F6D73702E6300002148465400000000E9000008C1000008A100000031
:203D60000800002000000000E12200081523000819230008792400080000000000000000E7
:203D80005523000854494D44415443535453455400000000A2000000400000200000000008
:203DA0001525000831250008F9260008252900080000000000000000412500080060213FB8
:203DC000956BAF208334A9381408402AB730AEBC399D9FB0BFBD848C090CA6E0AFBB1F0EC2
:203DE0003E8F8B971B10369B07931A1EABB90A9C0F3716273B3D8E8719B4A1040001020374
:043E000000127A0032
:00000001FF
